{
  "address": "0x9fE46736679d2D9a65F0992F2272dE9f3c7fa6e0",
  "abi": [
    {
      "inputs": [],
      "name": "ONLY_CONTROLLER",
      "type": "error"
    },
    {
      "inputs": [],
      "name": "ONLY_TOKEN",
      "type": "error"
    },
    {
      "anonymous": false,
      "inputs": [
        {
          "indexed": false,
          "internalType": "uint8",
          "name": "version",
          "type": "uint8"
        }
      ],
      "name": "Initialized",
      "type": "event"
    },
    {
      "anonymous": false,
      "inputs": [
        {
          "indexed": true,
          "internalType": "address",
          "name": "previousOwner",
          "type": "address"
        },
        {
          "indexed": true,
          "internalType": "address",
          "name": "newOwner",
          "type": "address"
        }
      ],
      "name": "OwnershipTransferred",
      "type": "event"
    },
    {
      "inputs": [
        {
          "internalType": "uint256",
          "name": "",
          "type": "uint256"
        }
      ],
      "name": "addressRecords",
      "outputs": [
        {
          "internalType": "bytes32",
          "name": "ethereum",
          "type": "bytes32"
        },
        {
          "internalType": "bytes32",
          "name": "dogecoin",
          "type": "bytes32"
        },
        {
          "internalType": "bytes32",
          "name": "bitcoin",
          "type": "bytes32"
        },
        {
          "internalType": "bytes32",
          "name": "litecoin",
          "type": "bytes32"
        }
      ],
      "stateMutability": "view",
      "type": "function"
    },
    {
      "inputs": [
        {
          "internalType": "uint256",
          "name": "",
          "type": "uint256"
        }
      ],
      "name": "contentRecords",
      "outputs": [
        {
          "internalType": "bytes",
          "name": "content",
          "type": "bytes"
        }
      ],
      "stateMutability": "view",
      "type": "function"
    },
    {
      "inputs": [
        {
          "internalType": "contract IDevDAONFT",
          "name": "_token",
          "type": "address"
        }
      ],
      "name": "initialize",
      "outputs": [],
      "stateMutability": "nonpayable",
      "type": "function"
    },
    {
      "inputs": [
        {
          "internalType": "string",
          "name": "",
          "type": "string"
        }
      ],
      "name": "namesToTokenId",
      "outputs": [
        {
          "internalType": "uint256",
          "name": "",
          "type": "uint256"
        }
      ],
      "stateMutability": "view",
      "type": "function"
    },
    {
      "inputs": [],
      "name": "owner",
      "outputs": [
        {
          "internalType": "address",
          "name": "",
          "type": "address"
        }
      ],
      "stateMutability": "view",
      "type": "function"
    },
    {
      "inputs": [],
      "name": "renounceOwnership",
      "outputs": [],
      "stateMutability": "nonpayable",
      "type": "function"
    },
    {
      "inputs": [
        {
          "internalType": "uint256",
          "name": "tokenId",
          "type": "uint256"
        },
        {
          "internalType": "bytes",
          "name": "_newAddrsRecord",
          "type": "bytes"
        }
      ],
      "name": "setAddrs",
      "outputs": [],
      "stateMutability": "nonpayable",
      "type": "function"
    },
    {
      "inputs": [
        {
          "internalType": "uint256",
          "name": "tokenId",
          "type": "uint256"
        },
        {
          "internalType": "bytes",
          "name": "_newContentRecord",
          "type": "bytes"
        }
      ],
      "name": "setContent",
      "outputs": [],
      "stateMutability": "nonpayable",
      "type": "function"
    },
    {
      "inputs": [
        {
          "internalType": "uint256",
          "name": "tokenId",
          "type": "uint256"
        },
        {
          "internalType": "string",
          "name": "name",
          "type": "string"
        }
      ],
      "name": "setName",
      "outputs": [],
      "stateMutability": "nonpayable",
      "type": "function"
    },
    {
      "inputs": [
        {
          "internalType": "uint256",
          "name": "tokenId",
          "type": "uint256"
        },
        {
          "internalType": "bytes",
          "name": "_newTextRecord",
          "type": "bytes"
        }
      ],
      "name": "setText",
      "outputs": [],
      "stateMutability": "nonpayable",
      "type": "function"
    },
    {
      "inputs": [
        {
          "internalType": "uint256",
          "name": "",
          "type": "uint256"
        }
      ],
      "name": "textRecords",
      "outputs": [
        {
          "internalType": "string",
          "name": "email",
          "type": "string"
        },
        {
          "internalType": "string",
          "name": "reddit",
          "type": "string"
        },
        {
          "internalType": "string",
          "name": "twitter",
          "type": "string"
        },
        {
          "internalType": "string",
          "name": "discord",
          "type": "string"
        },
        {
          "internalType": "string",
          "name": "github",
          "type": "string"
        },
        {
          "internalType": "string",
          "name": "avatar",
          "type": "string"
        },
        {
          "internalType": "string",
          "name": "url",
          "type": "string"
        },
        {
          "internalType": "string",
          "name": "keywords",
          "type": "string"
        }
      ],
      "stateMutability": "view",
      "type": "function"
    },
    {
      "inputs": [],
      "name": "token",
      "outputs": [
        {
          "internalType": "contract IDevDAONFT",
          "name": "",
          "type": "address"
        }
      ],
      "stateMutability": "view",
      "type": "function"
    },
    {
      "inputs": [
        {
          "internalType": "address",
          "name": "newOwner",
          "type": "address"
        }
      ],
      "name": "transferOwnership",
      "outputs": [],
      "stateMutability": "nonpayable",
      "type": "function"
    }
  ],
  "transactionHash": "0x635f1ae1a3efbc6f66a8ff327423d4fbfcb7219007e48e640419908db4b28585",
  "args": [],
  "numDeployments": 1,
  "solcInputHash": "a40f199e5fc1b36dcf3bcb3d5c70d877",
  "bytecode": "0x608060405234801561001057600080fd5b5061002d61002261003260201b60201c565b61003a60201b60201c565b6100fe565b600033905090565b60008060009054906101000a900473ffffffffffffffffffffffffffffffffffffffff169050816000806101000a81548173ffffffffffffffffffffffffffffffffffffffff021916908373ffffffffffffffffffffffffffffffffffffffff1602179055508173ffffffffffffffffffffffffffffffffffffffff168173ffffffffffffffffffffffffffffffffffffffff167f8be0079c531659141344cd1fd0a4f28419497f9722a3daafe3b4186f6b6457e060405160405180910390a35050565b611f838061010d6000396000f3fe608060405234801561001057600080fd5b50600436106100cf5760003560e01c80638da5cb5b1161008c578063c4d66de811610066578063c4d66de81461021a578063f2fde38b14610236578063fc0c546a14610252578063fe55932a14610270576100cf565b80638da5cb5b1461019c578063bd991f00146101ba578063bdd6bf75146101ea576100cf565b80631f5eb4e6146100d45780634bb7c0a6146100f057806356acb7591461010c5780636f55cb1f14610128578063715018a61461015b57806385f3af7e14610165575b600080fd5b6100ee60048036038101906100e991906111fd565b61028c565b005b61010a600480360381019061010591906111fd565b610367565b005b610126600480360381019061012191906111fd565b610502565b005b610142600480360381019061013d919061125d565b6105d2565b60405161015294939291906112a3565b60405180910390f35b610163610602565b005b61017f600480360381019061017a919061125d565b610616565b604051610193989796959493929190611381565b60405180910390f35b6101a4610a9e565b6040516101b19190611478565b60405180910390f35b6101d460048036038101906101cf91906115c3565b610ac7565b6040516101e1919061161b565b60405180910390f35b61020460048036038101906101ff919061125d565b610af5565b604051610211919061168b565b60405180910390f35b610234600480360381019061022f91906116eb565b610b9b565b005b610250600480360381019061024b9190611744565b610d21565b005b61025a610da4565b60405161026791906117d0565b60405180910390f35b61028a60048036038101906102859190611841565b610dca565b005b826102de81600260003373ffffffffffffffffffffffffffffffffffffffff1673ffffffffffffffffffffffffffffffffffffffff168152602001908152602001600020610e7b90919063ffffffff16565b610314576040517f905dfbe200000000000000000000000000000000000000000000000000000000815260040160405180910390fd5b8282810190610323919061194f565b600560008681526020019081526020016000206000820151816000015560208201518160010155604082015181600201556060820151816003015590505050505050565b826103b981600260003373ffffffffffffffffffffffffffffffffffffffff1673ffffffffffffffffffffffffffffffffffffffff168152602001908152602001600020610e7b90919063ffffffff16565b6103ef576040517f905dfbe200000000000000000000000000000000000000000000000000000000815260040160405180910390fd5b82828101906103fe9190611b26565b60046000868152602001908152602001600020600082015181600001908051906020019061042d929190611025565b50602082015181600101908051906020019061044a929190611025565b506040820151816002019080519060200190610467929190611025565b506060820151816003019080519060200190610484929190611025565b5060808201518160040190805190602001906104a1929190611025565b5060a08201518160050190805190602001906104be929190611025565b5060c08201518160060190805190602001906104db929190611025565b5060e08201518160070190805190602001906104f8929190611025565b5090505050505050565b8261055481600260003373ffffffffffffffffffffffffffffffffffffffff1673ffffffffffffffffffffffffffffffffffffffff168152602001908152602001600020610e7b90919063ffffffff16565b61058a576040517f905dfbe200000000000000000000000000000000000000000000000000000000815260040160405180910390fd5b82828101906105999190611c68565b6006600086815260200190815260200160002060008201518160000190805190602001906105c89291906110ab565b5090505050505050565b60056020528060005260406000206000915090508060000154908060010154908060020154908060030154905084565b61060a610e95565b6106146000610f13565b565b600460205280600052604060002060009150905080600001805461063990611ce0565b80601f016020809104026020016040519081016040528092919081815260200182805461066590611ce0565b80156106b25780601f10610687576101008083540402835291602001916106b2565b820191906000526020600020905b81548152906001019060200180831161069557829003601f168201915b5050505050908060010180546106c790611ce0565b80601f01602080910402602001604051908101604052809291908181526020018280546106f390611ce0565b80156107405780601f1061071557610100808354040283529160200191610740565b820191906000526020600020905b81548152906001019060200180831161072357829003601f168201915b50505050509080600201805461075590611ce0565b80601f016020809104026020016040519081016040528092919081815260200182805461078190611ce0565b80156107ce5780601f106107a3576101008083540402835291602001916107ce565b820191906000526020600020905b8154815290600101906020018083116107b157829003601f168201915b5050505050908060030180546107e390611ce0565b80601f016020809104026020016040519081016040528092919081815260200182805461080f90611ce0565b801561085c5780601f106108315761010080835404028352916020019161085c565b820191906000526020600020905b81548152906001019060200180831161083f57829003601f168201915b50505050509080600401805461087190611ce0565b80601f016020809104026020016040519081016040528092919081815260200182805461089d90611ce0565b80156108ea5780601f106108bf576101008083540402835291602001916108ea565b820191906000526020600020905b8154815290600101906020018083116108cd57829003601f168201915b5050505050908060050180546108ff90611ce0565b80601f016020809104026020016040519081016040528092919081815260200182805461092b90611ce0565b80156109785780601f1061094d57610100808354040283529160200191610978565b820191906000526020600020905b81548152906001019060200180831161095b57829003601f168201915b50505050509080600601805461098d90611ce0565b80601f01602080910402602001604051908101604052809291908181526020018280546109b990611ce0565b8015610a065780601f106109db57610100808354040283529160200191610a06565b820191906000526020600020905b8154815290600101906020018083116109e957829003601f168201915b505050505090806007018054610a1b90611ce0565b80601f0160208091040260200160405190810160405280929190818152602001828054610a4790611ce0565b8015610a945780601f10610a6957610100808354040283529160200191610a94565b820191906000526020600020905b815481529060010190602001808311610a7757829003601f168201915b5050505050905088565b60008060009054906101000a900473ffffffffffffffffffffffffffffffffffffffff16905090565b6003818051602081018201805184825260208301602085012081835280955050505050506000915090505481565b6006602052806000526040600020600091509050806000018054610b1890611ce0565b80601f0160208091040260200160405190810160405280929190818152602001828054610b4490611ce0565b8015610b915780601f10610b6657610100808354040283529160200191610b91565b820191906000526020600020905b815481529060010190602001808311610b7457829003601f168201915b5050505050905081565b60008060159054906101000a900460ff16159050808015610bce57506001600060149054906101000a900460ff1660ff16105b80610bfd5750610bdd30610fd7565b158015610bfc57506001600060149054906101000a900460ff1660ff16145b5b610c3c576040517f08c379a0000000000000000000000000000000000000000000000000000000008152600401610c3390611d83565b60405180910390fd5b6001600060146101000a81548160ff021916908360ff1602179055508015610c7a576001600060156101000a81548160ff0219169083151502179055505b81600160006101000a81548173ffffffffffffffffffffffffffffffffffffffff021916908373ffffffffffffffffffffffffffffffffffffffff160217905550610cc433610f13565b8015610d1d5760008060156101000a81548160ff0219169083151502179055507f7f26b83ff96e1f2b6a682f133852f6798a09c465da95921460cefb38474024986001604051610d149190611deb565b60405180910390a15b5050565b610d29610e95565b600073ffffffffffffffffffffffffffffffffffffffff168173ffffffffffffffffffffffffffffffffffffffff1603610d98576040517f08c379a0000000000000000000000000000000000000000000000000000000008152600401610d8f90611e78565b60405180910390fd5b610da181610f13565b50565b600160009054906101000a900473ffffffffffffffffffffffffffffffffffffffff1681565b600160009054906101000a900473ffffffffffffffffffffffffffffffffffffffff1673ffffffffffffffffffffffffffffffffffffffff163373ffffffffffffffffffffffffffffffffffffffff1614610e51576040517f3ff0b6ce00000000000000000000000000000000000000000000000000000000815260040160405180910390fd5b8260038383604051610e64929190611ec8565b908152602001604051809103902081905550505050565b6000610e8d836000018360001b610ffa565b905092915050565b610e9d61101d565b73ffffffffffffffffffffffffffffffffffffffff16610ebb610a9e565b73ffffffffffffffffffffffffffffffffffffffff1614610f11576040517f08c379a0000000000000000000000000000000000000000000000000000000008152600401610f0890611f2d565b60405180910390fd5b565b60008060009054906101000a900473ffffffffffffffffffffffffffffffffffffffff169050816000806101000a81548173ffffffffffffffffffffffffffffffffffffffff021916908373ffffffffffffffffffffffffffffffffffffffff1602179055508173ffffffffffffffffffffffffffffffffffffffff168173ffffffffffffffffffffffffffffffffffffffff167f8be0079c531659141344cd1fd0a4f28419497f9722a3daafe3b4186f6b6457e060405160405180910390a35050565b6000808273ffffffffffffffffffffffffffffffffffffffff163b119050919050565b600080836001016000848152602001908152602001600020541415905092915050565b600033905090565b82805461103190611ce0565b90600052602060002090601f016020900481019282611053576000855561109a565b82601f1061106c57805160ff191683800117855561109a565b8280016001018555821561109a579182015b8281111561109957825182559160200191906001019061107e565b5b5090506110a79190611131565b5090565b8280546110b790611ce0565b90600052602060002090601f0160209004810192826110d95760008555611120565b82601f106110f257805160ff1916838001178555611120565b82800160010185558215611120579182015b8281111561111f578251825591602001919060010190611104565b5b50905061112d9190611131565b5090565b5b8082111561114a576000816000905550600101611132565b5090565b6000604051905090565b600080fd5b600080fd5b6000819050919050565b61117581611162565b811461118057600080fd5b50565b6000813590506111928161116c565b92915050565b600080fd5b600080fd5b600080fd5b60008083601f8401126111bd576111bc611198565b5b8235905067ffffffffffffffff8111156111da576111d961119d565b5b6020830191508360018202830111156111f6576111f56111a2565b5b9250929050565b60008060006040848603121561121657611215611158565b5b600061122486828701611183565b935050602084013567ffffffffffffffff8111156112455761124461115d565b5b611251868287016111a7565b92509250509250925092565b60006020828403121561127357611272611158565b5b600061128184828501611183565b91505092915050565b6000819050919050565b61129d8161128a565b82525050565b60006080820190506112b86000830187611294565b6112c56020830186611294565b6112d26040830185611294565b6112df6060830184611294565b95945050505050565b600081519050919050565b600082825260208201905092915050565b60005b83811015611322578082015181840152602081019050611307565b83811115611331576000848401525b50505050565b6000601f19601f8301169050919050565b6000611353826112e8565b61135d81856112f3565b935061136d818560208601611304565b61137681611337565b840191505092915050565b600061010082019050818103600083015261139c818b611348565b905081810360208301526113b0818a611348565b905081810360408301526113c48189611348565b905081810360608301526113d88188611348565b905081810360808301526113ec8187611348565b905081810360a08301526114008186611348565b905081810360c08301526114148185611348565b905081810360e08301526114288184611348565b90509998505050505050505050565b600073ffffffffffffffffffffffffffffffffffffffff82169050919050565b600061146282611437565b9050919050565b61147281611457565b82525050565b600060208201905061148d6000830184611469565b92915050565b600080fd5b7f4e487b7100000000000000000000000000000000000000000000000000000000600052604160045260246000fd5b6114d082611337565b810181811067ffffffffffffffff821117156114ef576114ee611498565b5b80604052505050565b600061150261114e565b905061150e82826114c7565b919050565b600067ffffffffffffffff82111561152e5761152d611498565b5b61153782611337565b9050602081019050919050565b82818337600083830152505050565b600061156661156184611513565b6114f8565b90508281526020810184848401111561158257611581611493565b5b61158d848285611544565b509392505050565b600082601f8301126115aa576115a9611198565b5b81356115ba848260208601611553565b91505092915050565b6000602082840312156115d9576115d8611158565b5b600082013567ffffffffffffffff8111156115f7576115f661115d565b5b61160384828501611595565b91505092915050565b61161581611162565b82525050565b6000602082019050611630600083018461160c565b92915050565b600081519050919050565b600082825260208201905092915050565b600061165d82611636565b6116678185611641565b9350611677818560208601611304565b61168081611337565b840191505092915050565b600060208201905081810360008301526116a58184611652565b905092915050565b60006116b882611457565b9050919050565b6116c8816116ad565b81146116d357600080fd5b50565b6000813590506116e5816116bf565b92915050565b60006020828403121561170157611700611158565b5b600061170f848285016116d6565b91505092915050565b61172181611457565b811461172c57600080fd5b50565b60008135905061173e81611718565b92915050565b60006020828403121561175a57611759611158565b5b60006117688482850161172f565b91505092915050565b6000819050919050565b600061179661179161178c84611437565b611771565b611437565b9050919050565b60006117a88261177b565b9050919050565b60006117ba8261179d565b9050919050565b6117ca816117af565b82525050565b60006020820190506117e560008301846117c1565b92915050565b60008083601f84011261180157611800611198565b5b8235905067ffffffffffffffff81111561181e5761181d61119d565b5b60208301915083600182028301111561183a576118396111a2565b5b9250929050565b60008060006040848603121561185a57611859611158565b5b600061186886828701611183565b935050602084013567ffffffffffffffff8111156118895761188861115d565b5b611895868287016117eb565b92509250509250925092565b600080fd5b600080fd5b6118b48161128a565b81146118bf57600080fd5b50565b6000813590506118d1816118ab565b92915050565b6000608082840312156118ed576118ec6118a1565b5b6118f760806114f8565b90506000611907848285016118c2565b600083015250602061191b848285016118c2565b602083015250604061192f848285016118c2565b6040830152506060611943848285016118c2565b60608301525092915050565b60006080828403121561196557611964611158565b5b6000611973848285016118d7565b91505092915050565b60006101008284031215611993576119926118a1565b5b61199e6101006114f8565b9050600082013567ffffffffffffffff8111156119be576119bd6118a6565b5b6119ca84828501611595565b600083015250602082013567ffffffffffffffff8111156119ee576119ed6118a6565b5b6119fa84828501611595565b602083015250604082013567ffffffffffffffff811115611a1e57611a1d6118a6565b5b611a2a84828501611595565b604083015250606082013567ffffffffffffffff811115611a4e57611a4d6118a6565b5b611a5a84828501611595565b606083015250608082013567ffffffffffffffff811115611a7e57611a7d6118a6565b5b611a8a84828501611595565b60808301525060a082013567ffffffffffffffff811115611aae57611aad6118a6565b5b611aba84828501611595565b60a08301525060c082013567ffffffffffffffff811115611ade57611add6118a6565b5b611aea84828501611595565b60c08301525060e082013567ffffffffffffffff811115611b0e57611b0d6118a6565b5b611b1a84828501611595565b60e08301525092915050565b600060208284031215611b3c57611b3b611158565b5b600082013567ffffffffffffffff811115611b5a57611b5961115d565b5b611b668482850161197c565b91505092915050565b600067ffffffffffffffff821115611b8a57611b89611498565b5b611b9382611337565b9050602081019050919050565b6000611bb3611bae84611b6f565b6114f8565b905082815260208101848484011115611bcf57611bce611493565b5b611bda848285611544565b509392505050565b600082601f830112611bf757611bf6611198565b5b8135611c07848260208601611ba0565b91505092915050565b600060208284031215611c2657611c256118a1565b5b611c3060206114f8565b9050600082013567ffffffffffffffff811115611c5057611c4f6118a6565b5b611c5c84828501611be2565b60008301525092915050565b600060208284031215611c7e57611c7d611158565b5b600082013567ffffffffffffffff811115611c9c57611c9b61115d565b5b611ca884828501611c10565b91505092915050565b7f4e487b7100000000000000000000000000000000000000000000000000000000600052602260045260246000fd5b60006002820490506001821680611cf857607f821691505b602082108103611d0b57611d0a611cb1565b5b50919050565b7f496e697469616c697a61626c653a20636f6e747261637420697320616c72656160008201527f647920696e697469616c697a6564000000000000000000000000000000000000602082015250565b6000611d6d602e836112f3565b9150611d7882611d11565b604082019050919050565b60006020820190508181036000830152611d9c81611d60565b9050919050565b6000819050919050565b600060ff82169050919050565b6000611dd5611dd0611dcb84611da3565b611771565b611dad565b9050919050565b611de581611dba565b82525050565b6000602082019050611e006000830184611ddc565b92915050565b7f4f776e61626c653a206e6577206f776e657220697320746865207a65726f206160008201527f6464726573730000000000000000000000000000000000000000000000000000602082015250565b6000611e626026836112f3565b9150611e6d82611e06565b604082019050919050565b60006020820190508181036000830152611e9181611e55565b9050919050565b600081905092915050565b6000611eaf8385611e98565b9350611ebc838584611544565b82840190509392505050565b6000611ed5828486611ea3565b91508190509392505050565b7f4f776e61626c653a2063616c6c6572206973206e6f7420746865206f776e6572600082015250565b6000611f176020836112f3565b9150611f2282611ee1565b602082019050919050565b60006020820190508181036000830152611f4681611f0a565b905091905056fea264697066735822122029652b54c65ff163d8d8fc85eb77aa2be6a1f26772f6ceaa471f1f8367ae570264736f6c634300080d0033",
  "devdoc": {
    "kind": "dev",
    "methods": {
      "owner()": {
        "details": "Returns the address of the current owner."
      },
      "renounceOwnership()": {
        "details": "Leaves the contract without owner. It will not be possible to call `onlyOwner` functions anymore. Can only be called by the current owner. NOTE: Renouncing ownership will leave the contract without an owner, thereby removing any functionality that is only available to the owner."
      },
      "transferOwnership(address)": {
        "details": "Transfers ownership of the contract to a new account (`newOwner`). Can only be called by the current owner."
      }
    },
    "version": 1
  },
  "userdoc": {
    "kind": "user",
    "methods": {},
    "version": 1
  },
  "storageLayout": {
    "storage": [
      {
        "astId": 7,
        "contract": "contracts/DevDAORegistry.sol:DevDAORegistry",
        "label": "_owner",
        "offset": 0,
        "slot": "0",
        "type": "t_address"
      },
      {
        "astId": 119,
        "contract": "contracts/DevDAORegistry.sol:DevDAORegistry",
        "label": "_initialized",
        "offset": 20,
        "slot": "0",
        "type": "t_uint8"
      },
      {
        "astId": 122,
        "contract": "contracts/DevDAORegistry.sol:DevDAORegistry",
        "label": "_initializing",
        "offset": 21,
        "slot": "0",
        "type": "t_bool"
      },
      {
        "astId": 2958,
        "contract": "contracts/DevDAORegistry.sol:DevDAORegistry",
        "label": "token",
        "offset": 0,
        "slot": "1",
        "type": "t_contract(IDevDAONFT)3273"
      },
      {
        "astId": 2963,
        "contract": "contracts/DevDAORegistry.sol:DevDAORegistry",
        "label": "controllerToTokenIds",
        "offset": 0,
        "slot": "2",
        "type": "t_mapping(t_address,t_struct(UintSet)2339_storage)"
      },
      {
        "astId": 2967,
        "contract": "contracts/DevDAORegistry.sol:DevDAORegistry",
        "label": "namesToTokenId",
        "offset": 0,
        "slot": "3",
        "type": "t_mapping(t_string_memory_ptr,t_uint256)"
      },
      {
        "astId": 2972,
        "contract": "contracts/DevDAORegistry.sol:DevDAORegistry",
        "label": "textRecords",
        "offset": 0,
        "slot": "4",
        "type": "t_mapping(t_uint256,t_struct(DevDAOTextMetadata)2943_storage)"
      },
      {
        "astId": 2977,
        "contract": "contracts/DevDAORegistry.sol:DevDAORegistry",
        "label": "addressRecords",
        "offset": 0,
        "slot": "5",
        "type": "t_mapping(t_uint256,t_struct(DevDAOAddressMetadata)2952_storage)"
      },
      {
        "astId": 2982,
        "contract": "contracts/DevDAORegistry.sol:DevDAORegistry",
        "label": "contentRecords",
        "offset": 0,
        "slot": "6",
        "type": "t_mapping(t_uint256,t_struct(DevDAOContentMetadata)2955_storage)"
      }
    ],
    "types": {
      "t_address": {
        "encoding": "inplace",
        "label": "address",
        "numberOfBytes": "20"
      },
      "t_array(t_bytes32)dyn_storage": {
        "base": "t_bytes32",
        "encoding": "dynamic_array",
        "label": "bytes32[]",
        "numberOfBytes": "32"
      },
      "t_bool": {
        "encoding": "inplace",
        "label": "bool",
        "numberOfBytes": "1"
      },
      "t_bytes32": {
        "encoding": "inplace",
        "label": "bytes32",
        "numberOfBytes": "32"
      },
      "t_bytes_storage": {
        "encoding": "bytes",
        "label": "bytes",
        "numberOfBytes": "32"
      },
      "t_contract(IDevDAONFT)3273": {
        "encoding": "inplace",
        "label": "contract IDevDAONFT",
        "numberOfBytes": "20"
      },
      "t_mapping(t_address,t_struct(UintSet)2339_storage)": {
        "encoding": "mapping",
        "key": "t_address",
        "label": "mapping(address => struct EnumerableSet.UintSet)",
        "numberOfBytes": "32",
        "value": "t_struct(UintSet)2339_storage"
      },
      "t_mapping(t_bytes32,t_uint256)": {
        "encoding": "mapping",
        "key": "t_bytes32",
        "label": "mapping(bytes32 => uint256)",
        "numberOfBytes": "32",
        "value": "t_uint256"
      },
      "t_mapping(t_string_memory_ptr,t_uint256)": {
        "encoding": "mapping",
        "key": "t_string_memory_ptr",
        "label": "mapping(string => uint256)",
        "numberOfBytes": "32",
        "value": "t_uint256"
      },
      "t_mapping(t_uint256,t_struct(DevDAOAddressMetadata)2952_storage)": {
        "encoding": "mapping",
        "key": "t_uint256",
        "label": "mapping(uint256 => struct DevDAORegistry.DevDAOAddressMetadata)",
        "numberOfBytes": "32",
        "value": "t_struct(DevDAOAddressMetadata)2952_storage"
      },
      "t_mapping(t_uint256,t_struct(DevDAOContentMetadata)2955_storage)": {
        "encoding": "mapping",
        "key": "t_uint256",
        "label": "mapping(uint256 => struct DevDAORegistry.DevDAOContentMetadata)",
        "numberOfBytes": "32",
        "value": "t_struct(DevDAOContentMetadata)2955_storage"
      },
      "t_mapping(t_uint256,t_struct(DevDAOTextMetadata)2943_storage)": {
        "encoding": "mapping",
        "key": "t_uint256",
        "label": "mapping(uint256 => struct DevDAORegistry.DevDAOTextMetadata)",
        "numberOfBytes": "32",
        "value": "t_struct(DevDAOTextMetadata)2943_storage"
      },
      "t_string_memory_ptr": {
        "encoding": "bytes",
        "label": "string",
        "numberOfBytes": "32"
      },
      "t_string_storage": {
        "encoding": "bytes",
        "label": "string",
        "numberOfBytes": "32"
      },
      "t_struct(DevDAOAddressMetadata)2952_storage": {
        "encoding": "inplace",
        "label": "struct DevDAORegistry.DevDAOAddressMetadata",
        "members": [
          {
            "astId": 2945,
            "contract": "contracts/DevDAORegistry.sol:DevDAORegistry",
            "label": "ethereum",
            "offset": 0,
            "slot": "0",
            "type": "t_bytes32"
          },
          {
            "astId": 2947,
            "contract": "contracts/DevDAORegistry.sol:DevDAORegistry",
            "label": "dogecoin",
            "offset": 0,
            "slot": "1",
            "type": "t_bytes32"
          },
          {
            "astId": 2949,
            "contract": "contracts/DevDAORegistry.sol:DevDAORegistry",
            "label": "bitcoin",
            "offset": 0,
            "slot": "2",
            "type": "t_bytes32"
          },
          {
            "astId": 2951,
            "contract": "contracts/DevDAORegistry.sol:DevDAORegistry",
            "label": "litecoin",
            "offset": 0,
            "slot": "3",
            "type": "t_bytes32"
          }
        ],
        "numberOfBytes": "128"
      },
      "t_struct(DevDAOContentMetadata)2955_storage": {
        "encoding": "inplace",
        "label": "struct DevDAORegistry.DevDAOContentMetadata",
        "members": [
          {
            "astId": 2954,
            "contract": "contracts/DevDAORegistry.sol:DevDAORegistry",
            "label": "content",
            "offset": 0,
            "slot": "0",
            "type": "t_bytes_storage"
          }
        ],
        "numberOfBytes": "32"
      },
      "t_struct(DevDAOTextMetadata)2943_storage": {
        "encoding": "inplace",
        "label": "struct DevDAORegistry.DevDAOTextMetadata",
        "members": [
          {
            "astId": 2928,
            "contract": "contracts/DevDAORegistry.sol:DevDAORegistry",
            "label": "email",
            "offset": 0,
            "slot": "0",
            "type": "t_string_storage"
          },
          {
            "astId": 2930,
            "contract": "contracts/DevDAORegistry.sol:DevDAORegistry",
            "label": "reddit",
            "offset": 0,
            "slot": "1",
            "type": "t_string_storage"
          },
          {
            "astId": 2932,
            "contract": "contracts/DevDAORegistry.sol:DevDAORegistry",
            "label": "twitter",
            "offset": 0,
            "slot": "2",
            "type": "t_string_storage"
          },
          {
            "astId": 2934,
            "contract": "contracts/DevDAORegistry.sol:DevDAORegistry",
            "label": "discord",
            "offset": 0,
            "slot": "3",
            "type": "t_string_storage"
          },
          {
            "astId": 2936,
            "contract": "contracts/DevDAORegistry.sol:DevDAORegistry",
            "label": "github",
            "offset": 0,
            "slot": "4",
            "type": "t_string_storage"
          },
          {
            "astId": 2938,
            "contract": "contracts/DevDAORegistry.sol:DevDAORegistry",
            "label": "avatar",
            "offset": 0,
            "slot": "5",
            "type": "t_string_storage"
          },
          {
            "astId": 2940,
            "contract": "contracts/DevDAORegistry.sol:DevDAORegistry",
            "label": "url",
            "offset": 0,
            "slot": "6",
            "type": "t_string_storage"
          },
          {
            "astId": 2942,
            "contract": "contracts/DevDAORegistry.sol:DevDAORegistry",
            "label": "keywords",
            "offset": 0,
            "slot": "7",
            "type": "t_string_storage"
          }
        ],
        "numberOfBytes": "256"
      },
      "t_struct(Set)1881_storage": {
        "encoding": "inplace",
        "label": "struct EnumerableSet.Set",
        "members": [
          {
            "astId": 1876,
            "contract": "contracts/DevDAORegistry.sol:DevDAORegistry",
            "label": "_values",
            "offset": 0,
            "slot": "0",
            "type": "t_array(t_bytes32)dyn_storage"
          },
          {
            "astId": 1880,
            "contract": "contracts/DevDAORegistry.sol:DevDAORegistry",
            "label": "_indexes",
            "offset": 0,
            "slot": "1",
            "type": "t_mapping(t_bytes32,t_uint256)"
          }
        ],
        "numberOfBytes": "64"
      },
      "t_struct(UintSet)2339_storage": {
        "encoding": "inplace",
        "label": "struct EnumerableSet.UintSet",
        "members": [
          {
            "astId": 2338,
            "contract": "contracts/DevDAORegistry.sol:DevDAORegistry",
            "label": "_inner",
            "offset": 0,
            "slot": "0",
            "type": "t_struct(Set)1881_storage"
          }
        ],
        "numberOfBytes": "64"
      },
      "t_uint256": {
        "encoding": "inplace",
        "label": "uint256",
        "numberOfBytes": "32"
      },
      "t_uint8": {
        "encoding": "inplace",
        "label": "uint8",
        "numberOfBytes": "1"
      }
    }
  }
}