{
  "address": "0xe7f1725E7734CE288F8367e1Bb143E90bb3F0512",
  "abi": [
    {
      "inputs": [],
      "stateMutability": "nonpayable",
      "type": "constructor"
    },
    {
      "anonymous": false,
      "inputs": [
        {
          "indexed": false,
          "internalType": "uint8",
          "name": "version",
          "type": "uint8"
        }
      ],
      "name": "Initialized",
      "type": "event"
    },
    {
      "anonymous": false,
      "inputs": [
        {
          "indexed": true,
          "internalType": "address",
          "name": "previousOwner",
          "type": "address"
        },
        {
          "indexed": true,
          "internalType": "address",
          "name": "newOwner",
          "type": "address"
        }
      ],
      "name": "OwnershipTransferred",
      "type": "event"
    },
    {
      "inputs": [],
      "name": "initialize",
      "outputs": [],
      "stateMutability": "nonpayable",
      "type": "function"
    },
    {
      "inputs": [
        {
          "internalType": "uint8",
          "name": "",
          "type": "uint8"
        }
      ],
      "name": "lengthToPrices",
      "outputs": [
        {
          "internalType": "uint256",
          "name": "",
          "type": "uint256"
        }
      ],
      "stateMutability": "view",
      "type": "function"
    },
    {
      "inputs": [],
      "name": "owner",
      "outputs": [
        {
          "internalType": "address",
          "name": "",
          "type": "address"
        }
      ],
      "stateMutability": "view",
      "type": "function"
    },
    {
      "inputs": [],
      "name": "renounceOwnership",
      "outputs": [],
      "stateMutability": "nonpayable",
      "type": "function"
    },
    {
      "inputs": [
        {
          "internalType": "uint8",
          "name": "length",
          "type": "uint8"
        },
        {
          "internalType": "uint256",
          "name": "price",
          "type": "uint256"
        }
      ],
      "name": "setMapping",
      "outputs": [],
      "stateMutability": "nonpayable",
      "type": "function"
    },
    {
      "inputs": [
        {
          "internalType": "address",
          "name": "newOwner",
          "type": "address"
        }
      ],
      "name": "transferOwnership",
      "outputs": [],
      "stateMutability": "nonpayable",
      "type": "function"
    }
  ],
  "transactionHash": "0x620acbf2b775ce7fdc85df06d0ec399345f62a3cc55f28775dda89df0ca5c7e4",
  "args": [],
  "numDeployments": 1,
  "solcInputHash": "a40f199e5fc1b36dcf3bcb3d5c70d877",
  "bytecode": "0x608060405234801561001057600080fd5b5061002d6100226102ba60201b60201c565b6102c260201b60201c565b670de0b6b3a764000060016000600360ff168152602001908152602001600020819055506706f05b59d3b2000060016000600460ff1681526020019081526020016000208190555067016345785d8a000060016000600560ff1681526020019081526020016000208190555067016345785d8a000060016000600660ff1681526020019081526020016000208190555067016345785d8a000060016000600760ff1681526020019081526020016000208190555067016345785d8a000060016000600860ff1681526020019081526020016000208190555067016345785d8a000060016000600960ff1681526020019081526020016000208190555067016345785d8a000060016000600a60ff1681526020019081526020016000208190555067016345785d8a000060016000600b60ff1681526020019081526020016000208190555067016345785d8a000060016000600c60ff1681526020019081526020016000208190555067016345785d8a000060016000600d60ff1681526020019081526020016000208190555067016345785d8a000060016000600e60ff1681526020019081526020016000208190555067016345785d8a000060016000600f60ff1681526020019081526020016000208190555067016345785d8a000060016000601060ff1681526020019081526020016000208190555067016345785d8a000060016000601160ff1681526020019081526020016000208190555067016345785d8a000060016000601260ff1681526020019081526020016000208190555067016345785d8a000060016000601360ff1681526020019081526020016000208190555067016345785d8a000060016000601460ff16815260200190815260200160002081905550610386565b600033905090565b60008060009054906101000a900473ffffffffffffffffffffffffffffffffffffffff169050816000806101000a81548173ffffffffffffffffffffffffffffffffffffffff021916908373ffffffffffffffffffffffffffffffffffffffff1602179055508173ffffffffffffffffffffffffffffffffffffffff168173ffffffffffffffffffffffffffffffffffffffff167f8be0079c531659141344cd1fd0a4f28419497f9722a3daafe3b4186f6b6457e060405160405180910390a35050565b6108ab806103956000396000f3fe608060405234801561001057600080fd5b50600436106100625760003560e01c8063715018a6146100675780638129fc1c146100715780638cfb13f61461007b5780638da5cb5b146100ab578063ce5fef2a146100c9578063f2fde38b146100e5575b600080fd5b61006f610101565b005b610079610115565b005b610095600480360381019061009091906104f2565b610259565b6040516100a29190610538565b60405180910390f35b6100b3610271565b6040516100c09190610594565b60405180910390f35b6100e360048036038101906100de91906105db565b61029a565b005b6100ff60048036038101906100fa9190610647565b6102c4565b005b610109610347565b61011360006103c5565b565b60008060159054906101000a900460ff1615905080801561014857506001600060149054906101000a900460ff1660ff16105b80610177575061015730610489565b15801561017657506001600060149054906101000a900460ff1660ff16145b5b6101b6576040517f08c379a00000000000000000000000000000000000000000000000000000000081526004016101ad906106f7565b60405180910390fd5b6001600060146101000a81548160ff021916908360ff16021790555080156101f4576001600060156101000a81548160ff0219169083151502179055505b6101fd336103c5565b80156102565760008060156101000a81548160ff0219169083151502179055507f7f26b83ff96e1f2b6a682f133852f6798a09c465da95921460cefb3847402498600160405161024d919061075c565b60405180910390a15b50565b60016020528060005260406000206000915090505481565b60008060009054906101000a900473ffffffffffffffffffffffffffffffffffffffff16905090565b6102a2610347565b80600160008460ff1660ff168152602001908152602001600020819055505050565b6102cc610347565b600073ffffffffffffffffffffffffffffffffffffffff168173ffffffffffffffffffffffffffffffffffffffff160361033b576040517f08c379a0000000000000000000000000000000000000000000000000000000008152600401610332906107e9565b60405180910390fd5b610344816103c5565b50565b61034f6104ac565b73ffffffffffffffffffffffffffffffffffffffff1661036d610271565b73ffffffffffffffffffffffffffffffffffffffff16146103c3576040517f08c379a00000000000000000000000000000000000000000000000000000000081526004016103ba90610855565b60405180910390fd5b565b60008060009054906101000a900473ffffffffffffffffffffffffffffffffffffffff169050816000806101000a81548173ffffffffffffffffffffffffffffffffffffffff021916908373ffffffffffffffffffffffffffffffffffffffff1602179055508173ffffffffffffffffffffffffffffffffffffffff168173ffffffffffffffffffffffffffffffffffffffff167f8be0079c531659141344cd1fd0a4f28419497f9722a3daafe3b4186f6b6457e060405160405180910390a35050565b6000808273ffffffffffffffffffffffffffffffffffffffff163b119050919050565b600033905090565b600080fd5b600060ff82169050919050565b6104cf816104b9565b81146104da57600080fd5b50565b6000813590506104ec816104c6565b92915050565b600060208284031215610508576105076104b4565b5b6000610516848285016104dd565b91505092915050565b6000819050919050565b6105328161051f565b82525050565b600060208201905061054d6000830184610529565b92915050565b600073ffffffffffffffffffffffffffffffffffffffff82169050919050565b600061057e82610553565b9050919050565b61058e81610573565b82525050565b60006020820190506105a96000830184610585565b92915050565b6105b88161051f565b81146105c357600080fd5b50565b6000813590506105d5816105af565b92915050565b600080604083850312156105f2576105f16104b4565b5b6000610600858286016104dd565b9250506020610611858286016105c6565b9150509250929050565b61062481610573565b811461062f57600080fd5b50565b6000813590506106418161061b565b92915050565b60006020828403121561065d5761065c6104b4565b5b600061066b84828501610632565b91505092915050565b600082825260208201905092915050565b7f496e697469616c697a61626c653a20636f6e747261637420697320616c72656160008201527f647920696e697469616c697a6564000000000000000000000000000000000000602082015250565b60006106e1602e83610674565b91506106ec82610685565b604082019050919050565b60006020820190508181036000830152610710816106d4565b9050919050565b6000819050919050565b6000819050919050565b600061074661074161073c84610717565b610721565b6104b9565b9050919050565b6107568161072b565b82525050565b6000602082019050610771600083018461074d565b92915050565b7f4f776e61626c653a206e6577206f776e657220697320746865207a65726f206160008201527f6464726573730000000000000000000000000000000000000000000000000000602082015250565b60006107d3602683610674565b91506107de82610777565b604082019050919050565b60006020820190508181036000830152610802816107c6565b9050919050565b7f4f776e61626c653a2063616c6c6572206973206e6f7420746865206f776e6572600082015250565b600061083f602083610674565b915061084a82610809565b602082019050919050565b6000602082019050818103600083015261086e81610832565b905091905056fea26469706673582212207f90961cdaf7e5ea884b3a4066585a7d40e0f2674f210e843f131db4c97d54bf64736f6c634300080d0033",
  "devdoc": {
    "kind": "dev",
    "methods": {
      "owner()": {
        "details": "Returns the address of the current owner."
      },
      "renounceOwnership()": {
        "details": "Leaves the contract without owner. It will not be possible to call `onlyOwner` functions anymore. Can only be called by the current owner. NOTE: Renouncing ownership will leave the contract without an owner, thereby removing any functionality that is only available to the owner."
      },
      "transferOwnership(address)": {
        "details": "Transfers ownership of the contract to a new account (`newOwner`). Can only be called by the current owner."
      }
    },
    "version": 1
  },
  "userdoc": {
    "kind": "user",
    "methods": {},
    "version": 1
  },
  "storageLayout": {
    "storage": [
      {
        "astId": 7,
        "contract": "contracts/DevDAOPriceOracle.sol:DevDAOPriceOracle",
        "label": "_owner",
        "offset": 0,
        "slot": "0",
        "type": "t_address"
      },
      {
        "astId": 119,
        "contract": "contracts/DevDAOPriceOracle.sol:DevDAOPriceOracle",
        "label": "_initialized",
        "offset": 20,
        "slot": "0",
        "type": "t_uint8"
      },
      {
        "astId": 122,
        "contract": "contracts/DevDAOPriceOracle.sol:DevDAOPriceOracle",
        "label": "_initializing",
        "offset": 21,
        "slot": "0",
        "type": "t_bool"
      },
      {
        "astId": 2768,
        "contract": "contracts/DevDAOPriceOracle.sol:DevDAOPriceOracle",
        "label": "lengthToPrices",
        "offset": 0,
        "slot": "1",
        "type": "t_mapping(t_uint8,t_uint256)"
      }
    ],
    "types": {
      "t_address": {
        "encoding": "inplace",
        "label": "address",
        "numberOfBytes": "20"
      },
      "t_bool": {
        "encoding": "inplace",
        "label": "bool",
        "numberOfBytes": "1"
      },
      "t_mapping(t_uint8,t_uint256)": {
        "encoding": "mapping",
        "key": "t_uint8",
        "label": "mapping(uint8 => uint256)",
        "numberOfBytes": "32",
        "value": "t_uint256"
      },
      "t_uint256": {
        "encoding": "inplace",
        "label": "uint256",
        "numberOfBytes": "32"
      },
      "t_uint8": {
        "encoding": "inplace",
        "label": "uint8",
        "numberOfBytes": "1"
      }
    }
  }
}